:020000040000FA
:10000000831603138601FF3088008312881F062899
:1000100000080F390F2086002020800A062882075A
:100020003F3406345B344F3466346D347D340734EA
:100030007F34673477347C3439345E3479347134C6
:100040003520352035203520352035203520352008
:1000500035203520352035203520352035203520F8
:1000600035203520352035200800C8303928323079
:100070003928A100B430A0000000A00B4F28A10B2C
:100080003A2808000000000000000A304C28033025
:100090004C2803304C280530A100A530A000A00B4F
:1000A0004F28A10B4D280800A430000060285130D3
:1000B00060281F3060280E3000006028063060285D
:0C00C000A000A00B612808000000080050
:0400CC0000340034C8
:02400E00323F3F
:00000001FF
