:020000040000FA
:10000000012883161F30990018121811181398161A
:100010008C16880183129817181618138C128C1ED0
:100020000F281A08573A031D0F28413099008C12E7
:100030002F200F282F202F202F202F202F202F2060
:100040002F202F202F202F202F202F202F202F2038
:100050002F202F202F202F202F202F200800C830C6
:10006000332832303328A100B430A0000000A00BA8
:100070004928A10B342808000000000000000A30C5
:10008000462803304628033046280530A100A53015
:10009000A000A00B4928A10B47280800A4300000AD
:1000A0005A2851305A281F305A280E3000005A283A
:1000B00006305A28A000A00B5B28080000000800AA
:0400C00000340034D4
:02400E00323F3F
:00000001FF
