:020000040000FA
:020000002028B6
:040002000034003492
:10004000362001304E2048305F204F305F204C304A
:100050005F2041305F2005304C2057305F20453015
:100060005F204C305F2053305F2035288316880195
:1000700087018312802007103030702080203030BC
:10008000702080203030702080202030702056205A
:100090005020522054200800C03E5828803E582846
:1000A0000C30582801305828063058282830582855
:1000B000A10021087020A10E210870200800A200D4
:1000C00007146620A20E220866200800F039A3005B
:1000D000071408080F39A304230888007A200800B1
:1000E000F039A000071008080F39A0042008880084
:1000F0007A20080080208020871480208710080044
:0E010000FA30A4000000A40B82282508080095
:02400E00323F3F
:00000001FF
