:020000040000FA
:10000000012883168801051487019F151F159F1469
:100010001F101F179F1383129F171F139F121F126A
:100020009F111F141F151F1913281E0888008316FF
:100030001E088312870036203620362036203620D0
:10004000122836203620362036203620362036201C
:1000500036203620362036203620362036203620F0
:10006000362036203620362036200800C8303A2880
:1000700032303A28A100B430A0000000A00B502874
:10008000A10B3B2808000000000000000A304D28AA
:1000900003304D2803304D280530A100A530A000C5
:1000A000A00B5028A10B4E280800A43000006128A6
:1000B000513061281F3061280E3000006128063061
:0E00C0006128A000A00B6228080000000800C4
:0200CE000034FC
:0200D0000034FA
:02400E00323F3F
:00000001FF
