:020000040000FA
:10000000012883168801870105149F151F159F1469
:100010001F101F179F1383129F171F139F121F126A
:100020009F113E30950097161712921412109715D3
:1000300017159710171012151F14880187018814BF
:1000400008111F151F19222817080C39B1001E08A6
:10005000950083161E088312B000B00CB00C300857
:10006000B107310897004A2021284A204A204A2017
:100070004A204A204A204A204A204A204A204A2030
:100080004A204A204A204A204A204A204A204A2020
:100090004A200800C8304E2832304E28A100B43023
:1000A000A0000000A00B6428A10B4F28080000004E
:1000B000000000000A306128033061280330612805
:1000C0000530A100A530A000A00B6428A10B622878
:1000D0000800A43000007528513075281F3075289D
:1000E0000E300000752806307528A000A00B762879
:0600F000080000000800FA
:0400F600003400349E
:02400E00323F3F
:00000001FF
