:020000040000FA
:020000000528D1
:040002000034003492
:080008000F28081083160313F2
:100010000810061483128B170B168B100E282E2037
:10002000061C1728081C16280810172808148B10FF
:1000300009002E202E202E202E202E202E202E2095
:100040002E202E202E202E202E202E202E202E2040
:100050002E202E202E202E202E200800C8303228C0
:1000600032303228A100B430A0000000A00B482894
:10007000A10B332808000000000000000A304528CA
:1000800003304528033045280530A100A530A000E5
:10009000A00B4828A10B46280800A43000005928CE
:1000A000513059281F3059280E3000005928063089
:0E00B0005928A000A00B5A28080000000800E4
:02400E00323F3F
:00000001FF
